{
  "_format": "hh3-artifact-1",
  "contractName": "SafeLaunchFactory",
  "sourceName": "contracts/SafeLaunchFactory.sol",
  "abi": [
    {
      "inputs": [
        {
          "internalType": "address",
          "name": "target",
          "type": "address"
        }
      ],
      "name": "AddressEmptyCode",
      "type": "error"
    },
    {
      "inputs": [
        {
          "internalType": "address",
          "name": "implementation",
          "type": "address"
        }
      ],
      "name": "ERC1967InvalidImplementation",
      "type": "error"
    },
    {
      "inputs": [],
      "name": "ERC1967NonPayable",
      "type": "error"
    },
    {
      "inputs": [],
      "name": "EnforcedPause",
      "type": "error"
    },
    {
      "inputs": [],
      "name": "ExpectedPause",
      "type": "error"
    },
    {
      "inputs": [],
      "name": "FailedCall",
      "type": "error"
    },
    {
      "inputs": [],
      "name": "InvalidInitialization",
      "type": "error"
    },
    {
      "inputs": [],
      "name": "NotInitializing",
      "type": "error"
    },
    {
      "inputs": [
        {
          "internalType": "address",
          "name": "owner",
          "type": "address"
        }
      ],
      "name": "OwnableInvalidOwner",
      "type": "error"
    },
    {
      "inputs": [
        {
          "internalType": "address",
          "name": "account",
          "type": "address"
        }
      ],
      "name": "OwnableUnauthorizedAccount",
      "type": "error"
    },
    {
      "inputs": [],
      "name": "ReentrancyGuardReentrantCall",
      "type": "error"
    },
    {
      "inputs": [],
      "name": "UUPSUnauthorizedCallContext",
      "type": "error"
    },
    {
      "inputs": [
        {
          "internalType": "bytes32",
          "name": "slot",
          "type": "bytes32"
        }
      ],
      "name": "UUPSUnsupportedProxiableUUID",
      "type": "error"
    },
    {
      "anonymous": false,
      "inputs": [
        {
          "indexed": true,
          "internalType": "uint256",
          "name": "tokenId",
          "type": "uint256"
        },
        {
          "indexed": false,
          "internalType": "address",
          "name": "lpAddress",
          "type": "address"
        },
        {
          "indexed": false,
          "internalType": "uint256",
          "name": "lpAmount",
          "type": "uint256"
        },
        {
          "indexed": false,
          "internalType": "uint256",
          "name": "liquidityETH",
          "type": "uint256"
        }
      ],
      "name": "Bonded",
      "type": "event"
    },
    {
      "anonymous": false,
      "inputs": [
        {
          "indexed": true,
          "internalType": "uint256",
          "name": "tokenId",
          "type": "uint256"
        },
        {
          "indexed": true,
          "internalType": "address",
          "name": "buyer",
          "type": "address"
        },
        {
          "indexed": false,
          "internalType": "uint256",
          "name": "ethAmount",
          "type": "uint256"
        },
        {
          "indexed": false,
          "internalType": "uint256",
          "name": "tokenAmount",
          "type": "uint256"
        },
        {
          "indexed": false,
          "internalType": "uint256",
          "name": "totalRaised",
          "type": "uint256"
        }
      ],
      "name": "Buy",
      "type": "event"
    },
    {
      "anonymous": false,
      "inputs": [
        {
          "indexed": true,
          "internalType": "uint256",
          "name": "tokenId",
          "type": "uint256"
        },
        {
          "indexed": false,
          "internalType": "uint256",
          "name": "amount",
          "type": "uint256"
        }
      ],
      "name": "EmergencyWithdraw",
      "type": "event"
    },
    {
      "anonymous": false,
      "inputs": [
        {
          "indexed": true,
          "internalType": "uint256",
          "name": "tokenId",
          "type": "uint256"
        },
        {
          "indexed": false,
          "internalType": "uint256",
          "name": "totalRaised",
          "type": "uint256"
        }
      ],
      "name": "Failed",
      "type": "event"
    },
    {
      "anonymous": false,
      "inputs": [
        {
          "indexed": true,
          "internalType": "uint256",
          "name": "tokenId",
          "type": "uint256"
        },
        {
          "indexed": false,
          "internalType": "string",
          "name": "feeType",
          "type": "string"
        },
        {
          "indexed": false,
          "internalType": "uint256",
          "name": "amount",
          "type": "uint256"
        }
      ],
      "name": "FeePaid",
      "type": "event"
    },
    {
      "anonymous": false,
      "inputs": [
        {
          "indexed": false,
          "internalType": "uint64",
          "name": "version",
          "type": "uint64"
        }
      ],
      "name": "Initialized",
      "type": "event"
    },
    {
      "anonymous": false,
      "inputs": [
        {
          "indexed": true,
          "internalType": "uint256",
          "name": "tokenId",
          "type": "uint256"
        },
        {
          "indexed": false,
          "internalType": "uint256",
          "name": "amount",
          "type": "uint256"
        }
      ],
      "name": "LPWithdrawn",
      "type": "event"
    },
    {
      "anonymous": false,
      "inputs": [
        {
          "indexed": true,
          "internalType": "address",
          "name": "previousOwner",
          "type": "address"
        },
        {
          "indexed": true,
          "internalType": "address",
          "name": "newOwner",
          "type": "address"
        }
      ],
      "name": "OwnershipTransferred",
      "type": "event"
    },
    {
      "anonymous": false,
      "inputs": [
        {
          "indexed": false,
          "internalType": "address",
          "name": "account",
          "type": "address"
        }
      ],
      "name": "Paused",
      "type": "event"
    },
    {
      "anonymous": false,
      "inputs": [
        {
          "indexed": true,
          "internalType": "uint256",
          "name": "tokenId",
          "type": "uint256"
        },
        {
          "indexed": true,
          "internalType": "address",
          "name": "user",
          "type": "address"
        },
        {
          "indexed": false,
          "internalType": "uint256",
          "name": "amount",
          "type": "uint256"
        }
      ],
      "name": "Refund",
      "type": "event"
    },
    {
      "anonymous": false,
      "inputs": [
        {
          "indexed": true,
          "internalType": "uint256",
          "name": "tokenId",
          "type": "uint256"
        },
        {
          "indexed": true,
          "internalType": "address",
          "name": "tokenAddress",
          "type": "address"
        },
        {
          "indexed": true,
          "internalType": "address",
          "name": "creator",
          "type": "address"
        },
        {
          "indexed": false,
          "internalType": "string",
          "name": "metadataURI",
          "type": "string"
        },
        {
          "indexed": false,
          "internalType": "uint256",
          "name": "deadline",
          "type": "uint256"
        }
      ],
      "name": "TokenCreated",
      "type": "event"
    },
    {
      "anonymous": false,
      "inputs": [
        {
          "indexed": false,
          "internalType": "address",
          "name": "account",
          "type": "address"
        }
      ],
      "name": "Unpaused",
      "type": "event"
    },
    {
      "anonymous": false,
      "inputs": [
        {
          "indexed": true,
          "internalType": "address",
          "name": "implementation",
          "type": "address"
        }
      ],
      "name": "Upgraded",
      "type": "event"
    },
    {
      "inputs": [],
      "name": "FEE_WALLET",
      "outputs": [
        {
          "internalType": "address",
          "name": "",
          "type": "address"
        }
      ],
      "stateMutability": "view",
      "type": "function"
    },
    {
      "inputs": [],
      "name": "LIQUIDITY_SUPPLY",
      "outputs": [
        {
          "internalType": "uint256",
          "name": "",
          "type": "uint256"
        }
      ],
      "stateMutability": "view",
      "type": "function"
    },
    {
      "inputs": [],
      "name": "SALE_SUPPLY",
      "outputs": [
        {
          "internalType": "uint256",
          "name": "",
          "type": "uint256"
        }
      ],
      "stateMutability": "view",
      "type": "function"
    },
    {
      "inputs": [],
      "name": "TOTAL_SUPPLY",
      "outputs": [
        {
          "internalType": "uint256",
          "name": "",
          "type": "uint256"
        }
      ],
      "stateMutability": "view",
      "type": "function"
    },
    {
      "inputs": [],
      "name": "UPGRADE_INTERFACE_VERSION",
      "outputs": [
        {
          "internalType": "string",
          "name": "",
          "type": "string"
        }
      ],
      "stateMutability": "view",
      "type": "function"
    },
    {
      "inputs": [],
      "name": "bondingTarget",
      "outputs": [
        {
          "internalType": "uint256",
          "name": "",
          "type": "uint256"
        }
      ],
      "stateMutability": "view",
      "type": "function"
    },
    {
      "inputs": [
        {
          "internalType": "uint256",
          "name": "tokenId",
          "type": "uint256"
        }
      ],
      "name": "buy",
      "outputs": [],
      "stateMutability": "payable",
      "type": "function"
    },
    {
      "inputs": [
        {
          "internalType": "uint256",
          "name": "tokenId",
          "type": "uint256"
        }
      ],
      "name": "checkFailed",
      "outputs": [],
      "stateMutability": "nonpayable",
      "type": "function"
    },
    {
      "inputs": [
        {
          "internalType": "uint256",
          "name": "tokenId",
          "type": "uint256"
        }
      ],
      "name": "claimRefund",
      "outputs": [],
      "stateMutability": "nonpayable",
      "type": "function"
    },
    {
      "inputs": [
        {
          "internalType": "uint256",
          "name": "tokenId",
          "type": "uint256"
        }
      ],
      "name": "claimTokens",
      "outputs": [],
      "stateMutability": "nonpayable",
      "type": "function"
    },
    {
      "inputs": [
        {
          "internalType": "uint256",
          "name": "",
          "type": "uint256"
        },
        {
          "internalType": "address",
          "name": "",
          "type": "address"
        }
      ],
      "name": "contributions",
      "outputs": [
        {
          "internalType": "uint256",
          "name": "",
          "type": "uint256"
        }
      ],
      "stateMutability": "view",
      "type": "function"
    },
    {
      "inputs": [
        {
          "internalType": "string",
          "name": "name",
          "type": "string"
        },
        {
          "internalType": "string",
          "name": "symbol",
          "type": "string"
        },
        {
          "internalType": "string",
          "name": "metadataURI",
          "type": "string"
        },
        {
          "internalType": "uint256",
          "name": "durationHours",
          "type": "uint256"
        }
      ],
      "name": "createToken",
      "outputs": [
        {
          "internalType": "uint256",
          "name": "",
          "type": "uint256"
        }
      ],
      "stateMutability": "payable",
      "type": "function"
    },
    {
      "inputs": [],
      "name": "emergencyGracePeriod",
      "outputs": [
        {
          "internalType": "uint256",
          "name": "",
          "type": "uint256"
        }
      ],
      "stateMutability": "view",
      "type": "function"
    },
    {
      "inputs": [
        {
          "internalType": "uint256",
          "name": "tokenId",
          "type": "uint256"
        }
      ],
      "name": "emergencyWithdraw",
      "outputs": [],
      "stateMutability": "nonpayable",
      "type": "function"
    },
    {
      "inputs": [
        {
          "internalType": "uint256",
          "name": "tokenId",
          "type": "uint256"
        },
        {
          "internalType": "address",
          "name": "user",
          "type": "address"
        }
      ],
      "name": "getContribution",
      "outputs": [
        {
          "internalType": "uint256",
          "name": "",
          "type": "uint256"
        }
      ],
      "stateMutability": "view",
      "type": "function"
    },
    {
      "inputs": [
        {
          "internalType": "uint256",
          "name": "tokenId",
          "type": "uint256"
        }
      ],
      "name": "getCurrentPrice",
      "outputs": [
        {
          "internalType": "uint256",
          "name": "",
          "type": "uint256"
        }
      ],
      "stateMutability": "view",
      "type": "function"
    },
    {
      "inputs": [
        {
          "internalType": "uint256",
          "name": "tokenId",
          "type": "uint256"
        }
      ],
      "name": "getRemainingSupply",
      "outputs": [
        {
          "internalType": "uint256",
          "name": "",
          "type": "uint256"
        }
      ],
      "stateMutability": "view",
      "type": "function"
    },
    {
      "inputs": [
        {
          "internalType": "uint256",
          "name": "tokenId",
          "type": "uint256"
        }
      ],
      "name": "getToken",
      "outputs": [
        {
          "components": [
            {
              "internalType": "address",
              "name": "tokenAddress",
              "type": "address"
            },
            {
              "internalType": "address",
              "name": "creator",
              "type": "address"
            },
            {
              "internalType": "string",
              "name": "metadataURI",
              "type": "string"
            },
            {
              "internalType": "uint256",
              "name": "totalRaised",
              "type": "uint256"
            },
            {
              "internalType": "uint256",
              "name": "totalRefunded",
              "type": "uint256"
            },
            {
              "internalType": "uint256",
              "name": "tokensSold",
              "type": "uint256"
            },
            {
              "internalType": "uint256",
              "name": "deadline",
              "type": "uint256"
            },
            {
              "internalType": "uint256",
              "name": "failedTimestamp",
              "type": "uint256"
            },
            {
              "internalType": "bool",
              "name": "bonded",
              "type": "bool"
            },
            {
              "internalType": "bool",
              "name": "failed",
              "type": "bool"
            }
          ],
          "internalType": "struct SafeLaunchFactory.Token",
          "name": "",
          "type": "tuple"
        }
      ],
      "stateMutability": "view",
      "type": "function"
    },
    {
      "inputs": [
        {
          "internalType": "uint256",
          "name": "tokenId",
          "type": "uint256"
        },
        {
          "internalType": "address",
          "name": "user",
          "type": "address"
        }
      ],
      "name": "getTokenBalance",
      "outputs": [
        {
          "internalType": "uint256",
          "name": "",
          "type": "uint256"
        }
      ],
      "stateMutability": "view",
      "type": "function"
    },
    {
      "inputs": [
        {
          "internalType": "uint256",
          "name": "tokenId",
          "type": "uint256"
        },
        {
          "internalType": "uint256",
          "name": "ethAmount",
          "type": "uint256"
        }
      ],
      "name": "getTokensForETH",
      "outputs": [
        {
          "internalType": "uint256",
          "name": "",
          "type": "uint256"
        }
      ],
      "stateMutability": "view",
      "type": "function"
    },
    {
      "inputs": [
        {
          "internalType": "address",
          "name": "_positionManager",
          "type": "address"
        },
        {
          "internalType": "address",
          "name": "_weth",
          "type": "address"
        }
      ],
      "name": "initialize",
      "outputs": [],
      "stateMutability": "nonpayable",
      "type": "function"
    },
    {
      "inputs": [],
      "name": "launchFee",
      "outputs": [
        {
          "internalType": "uint256",
          "name": "",
          "type": "uint256"
        }
      ],
      "stateMutability": "view",
      "type": "function"
    },
    {
      "inputs": [
        {
          "internalType": "uint256",
          "name": "",
          "type": "uint256"
        }
      ],
      "name": "lpPositionIds",
      "outputs": [
        {
          "internalType": "uint256",
          "name": "",
          "type": "uint256"
        }
      ],
      "stateMutability": "view",
      "type": "function"
    },
    {
      "inputs": [],
      "name": "maxBuyPerWallet",
      "outputs": [
        {
          "internalType": "uint256",
          "name": "",
          "type": "uint256"
        }
      ],
      "stateMutability": "view",
      "type": "function"
    },
    {
      "inputs": [],
      "name": "owner",
      "outputs": [
        {
          "internalType": "address",
          "name": "",
          "type": "address"
        }
      ],
      "stateMutability": "view",
      "type": "function"
    },
    {
      "inputs": [
        {
          "internalType": "uint256",
          "name": "tokenId",
          "type": "uint256"
        }
      ],
      "name": "ownerWithdraw",
      "outputs": [],
      "stateMutability": "nonpayable",
      "type": "function"
    },
    {
      "inputs": [],
      "name": "ownerWithdrawAll",
      "outputs": [],
      "stateMutability": "nonpayable",
      "type": "function"
    },
    {
      "inputs": [],
      "name": "pause",
      "outputs": [],
      "stateMutability": "nonpayable",
      "type": "function"
    },
    {
      "inputs": [],
      "name": "paused",
      "outputs": [
        {
          "internalType": "bool",
          "name": "",
          "type": "bool"
        }
      ],
      "stateMutability": "view",
      "type": "function"
    },
    {
      "inputs": [],
      "name": "positionManager",
      "outputs": [
        {
          "internalType": "address",
          "name": "",
          "type": "address"
        }
      ],
      "stateMutability": "view",
      "type": "function"
    },
    {
      "inputs": [],
      "name": "proxiableUUID",
      "outputs": [
        {
          "internalType": "bytes32",
          "name": "",
          "type": "bytes32"
        }
      ],
      "stateMutability": "view",
      "type": "function"
    },
    {
      "inputs": [],
      "name": "renounceOwnership",
      "outputs": [],
      "stateMutability": "nonpayable",
      "type": "function"
    },
    {
      "inputs": [
        {
          "internalType": "uint256",
          "name": "_target",
          "type": "uint256"
        }
      ],
      "name": "setBondingTarget",
      "outputs": [],
      "stateMutability": "nonpayable",
      "type": "function"
    },
    {
      "inputs": [
        {
          "internalType": "uint256",
          "name": "_launchFee",
          "type": "uint256"
        },
        {
          "internalType": "uint256",
          "name": "_tradeFeePercent",
          "type": "uint256"
        }
      ],
      "name": "setFees",
      "outputs": [],
      "stateMutability": "nonpayable",
      "type": "function"
    },
    {
      "inputs": [
        {
          "internalType": "uint256",
          "name": "_maxBuy",
          "type": "uint256"
        }
      ],
      "name": "setMaxBuyPerWallet",
      "outputs": [],
      "stateMutability": "nonpayable",
      "type": "function"
    },
    {
      "inputs": [
        {
          "internalType": "address",
          "name": "_positionManager",
          "type": "address"
        }
      ],
      "name": "setPositionManager",
      "outputs": [],
      "stateMutability": "nonpayable",
      "type": "function"
    },
    {
      "inputs": [
        {
          "internalType": "address",
          "name": "_weth",
          "type": "address"
        }
      ],
      "name": "setWETH",
      "outputs": [],
      "stateMutability": "nonpayable",
      "type": "function"
    },
    {
      "inputs": [
        {
          "internalType": "uint256",
          "name": "",
          "type": "uint256"
        },
        {
          "internalType": "address",
          "name": "",
          "type": "address"
        }
      ],
      "name": "tokenBalances",
      "outputs": [
        {
          "internalType": "uint256",
          "name": "",
          "type": "uint256"
        }
      ],
      "stateMutability": "view",
      "type": "function"
    },
    {
      "inputs": [],
      "name": "tokenCount",
      "outputs": [
        {
          "internalType": "uint256",
          "name": "",
          "type": "uint256"
        }
      ],
      "stateMutability": "view",
      "type": "function"
    },
    {
      "inputs": [
        {
          "internalType": "uint256",
          "name": "",
          "type": "uint256"
        }
      ],
      "name": "tokens",
      "outputs": [
        {
          "internalType": "address",
          "name": "tokenAddress",
          "type": "address"
        },
        {
          "internalType": "address",
          "name": "creator",
          "type": "address"
        },
        {
          "internalType": "string",
          "name": "metadataURI",
          "type": "string"
        },
        {
          "internalType": "uint256",
          "name": "totalRaised",
          "type": "uint256"
        },
        {
          "internalType": "uint256",
          "name": "totalRefunded",
          "type": "uint256"
        },
        {
          "internalType": "uint256",
          "name": "tokensSold",
          "type": "uint256"
        },
        {
          "internalType": "uint256",
          "name": "deadline",
          "type": "uint256"
        },
        {
          "internalType": "uint256",
          "name": "failedTimestamp",
          "type": "uint256"
        },
        {
          "internalType": "bool",
          "name": "bonded",
          "type": "bool"
        },
        {
          "internalType": "bool",
          "name": "failed",
          "type": "bool"
        }
      ],
      "stateMutability": "view",
      "type": "function"
    },
    {
      "inputs": [],
      "name": "tradeFeePercent",
      "outputs": [
        {
          "internalType": "uint256",
          "name": "",
          "type": "uint256"
        }
      ],
      "stateMutability": "view",
      "type": "function"
    },
    {
      "inputs": [
        {
          "internalType": "address",
          "name": "newOwner",
          "type": "address"
        }
      ],
      "name": "transferOwnership",
      "outputs": [],
      "stateMutability": "nonpayable",
      "type": "function"
    },
    {
      "inputs": [],
      "name": "unpause",
      "outputs": [],
      "stateMutability": "nonpayable",
      "type": "function"
    },
    {
      "inputs": [
        {
          "internalType": "address",
          "name": "newImplementation",
          "type": "address"
        },
        {
          "internalType": "bytes",
          "name": "data",
          "type": "bytes"
        }
      ],
      "name": "upgradeToAndCall",
      "outputs": [],
      "stateMutability": "payable",
      "type": "function"
    },
    {
      "inputs": [],
      "name": "weth",
      "outputs": [
        {
          "internalType": "address",
          "name": "",
          "type": "address"
        }
      ],
      "stateMutability": "view",
      "type": "function"
    },
    {
      "inputs": [
        {
          "internalType": "uint256",
          "name": "tokenId",
          "type": "uint256"
        }
      ],
      "name": "withdrawLP",
      "outputs": [],
      "stateMutability": "nonpayable",
      "type": "function"
    },
    {
      "stateMutability": "payable",
      "type": "receive"
    }
  ],
  "bytecode": "0x60a06040523060805234801561001457600080fd5b50608051614add61003e6000396000818161253a0152818161256401526126b90152614add6000f3fe608060405260043610620002b75760003560e01c806369b253e3116200016b578063ad3cb1cc11620000d1578063e0d5af941162000084578063e0d5af9414620008a2578063e4456ecb14620008ba578063e4b50cb814620008df578063ef57e2d21462000913578063efbe8fd1146200095a578063f2fde38b146200097157600080fd5b8063ad3cb1cc14620007a4578063c55d0f5614620007e6578063cbf6fff9146200080b578063cf3cf573146200082c578063d96a094a1462000844578063e081dbf9146200085b57600080fd5b80638c858a14116200012a5780638c858a1414620006fd5780638cadf61d14620007225780638da5cb5b146200073a578063902d55a514620007525780639684121814620007745780639f181b5e146200078c57600080fd5b806369b253e3146200066e578063715018a61462000686578063791b98bc146200069e5780637bf1420b14620006c05780638456cb5914620006e557600080fd5b80634f1ef286116200021d5780635312ea8e11620001d05780635312ea8e146200056b5780635760f2e314620005905780635b769f3c14620005b55780635b7baf6414620005da5780635c975abb14620005ff578063661d49b0146200063257600080fd5b80634f1ef28614620004845780634f64b2be146200049b5780635214f6e114620004d8578063526e9a1314620004fd57806352d1902d146200052e578063530d0db7146200054657600080fd5b80633d891f5911620002765780633d891f5914620003815780633f4ba83a14620003bd5780633fc8cef314620003d557806344cd7948146200041057806346e04a2f146200043a578063485cc955146200045f57600080fd5b80630b78f9c014620002c45780631308e48b14620002eb5780632c20e96014620003105780633272f505146200033b57806333f707d1146200035c57600080fd5b36620002bf57005b600080fd5b348015620002d157600080fd5b50620002e9620002e336600462003419565b62000996565b005b348015620002f857600080fd5b50620002e96200030a3660046200343c565b620009f6565b3480156200031d57600080fd5b506200032860035481565b6040519081526020015b60405180910390f35b3480156200034857600080fd5b50620003286aa56fa5b99019a5c800000081565b3480156200036957600080fd5b50620002e96200037b3660046200343c565b62000a05565b3480156200038e57600080fd5b5062000328620003a03660046200346c565b600760209081526000928352604080842090915290825290205481565b348015620003ca57600080fd5b50620002e962000bdb565b348015620003e257600080fd5b50600b54620003f7906001600160a01b031681565b6040516001600160a01b03909116815260200162000332565b3480156200041d57600080fd5b50620003f773a2eb6be3bde7e99a8e68e6252e006ced620ff02f81565b3480156200044757600080fd5b50620002e9620004593660046200343c565b62000bf1565b3480156200046c57600080fd5b50620002e96200047e3660046200349f565b62000d63565b620002e962000495366004620034e8565b62000ee7565b348015620004a857600080fd5b50620004c0620004ba3660046200343c565b62000f0c565b604051620003329a999897969594939291906200360c565b348015620004e557600080fd5b50620002e9620004f73660046200343c565b62000fff565b3480156200050a57600080fd5b50620003286200051c3660046200343c565b60096020526000908152604090205481565b3480156200053b57600080fd5b50620003286200100e565b3480156200055357600080fd5b50620003286200056536600462003419565b6200102e565b3480156200057857600080fd5b50620002e96200058a3660046200343c565b62001073565b3480156200059d57600080fd5b50620002e9620005af3660046200367a565b620011af565b348015620005c257600080fd5b50620002e9620005d43660046200367a565b62001233565b348015620005e757600080fd5b50620002e9620005f93660046200343c565b620012a6565b3480156200060c57600080fd5b5060008051602062004a688339815191525460ff16604051901515815260200162000332565b3480156200063f57600080fd5b5062000328620006513660046200346c565b600860209081526000928352604080842090915290825290205481565b3480156200067b57600080fd5b506200032860015481565b3480156200069357600080fd5b50620002e962001471565b348015620006ab57600080fd5b50600a54620003f7906001600160a01b031681565b348015620006cd57600080fd5b50620002e9620006df3660046200343c565b62001487565b348015620006f257600080fd5b50620002e9620015c0565b3480156200070a57600080fd5b50620003286200071c3660046200343c565b620015d4565b3480156200072f57600080fd5b506200032860045481565b3480156200074757600080fd5b50620003f7620015fd565b3480156200075f57600080fd5b50620003286b033b2e3c9fd0803ce800000081565b3480156200078157600080fd5b506200032860025481565b3480156200079957600080fd5b506200032860055481565b348015620007b157600080fd5b50620007d7604051806040016040528060058152602001640352e302e360dc1b81525081565b6040516200033291906200369a565b348015620007f357600080fd5b5062000328620008053660046200343c565b6200162b565b3480156200081857600080fd5b50620003286714adf4b7320334b9601d1b81565b3480156200083957600080fd5b506200032860005481565b620002e9620008553660046200343c565b62001728565b3480156200086857600080fd5b50620003286200087a3660046200346c565b60009182526007602090815260408084206001600160a01b0393909316845291905290205490565b348015620008af57600080fd5b50620002e962001b6b565b348015620008c757600080fd5b50620002e9620008d93660046200343c565b62001c33565b348015620008ec57600080fd5b5062000904620008fe3660046200343c565b62001d53565b604051620003329190620036af565b3480156200092057600080fd5b5062000328620009323660046200346c565b60009182526008602090815260408084206001600160a01b0393909316845291905290205490565b620003286200096b366004620037b3565b62001ef0565b3480156200097e57600080fd5b50620002e9620009903660046200367a565b620023a9565b620009a0620023ea565b6101f4811115620009eb5760405162461bcd60e51b815260206004820152601060248201526f4d61782035252074726164652066656560801b60448201526064015b60405180910390fd5b600091909155600155565b62000a00620023ea565b600255565b62000a0f620023ea565b600081815260066020526040902080546001600160a01b031662000a475760405162461bcd60e51b8152600401620009e29062003860565b600881015460ff161562000a965760405162461bcd60e51b8152602060048201526015602482015274082d8e4cac2c8f240c4dedcc8cac840e8de40888ab605b1b6044820152606401620009e2565b60008160040154826003015462000aae9190620038a4565b90506000811162000af85760405162461bcd60e51b81526020600482015260136024820152724e6f7468696e6720746f20776974686472617760681b6044820152606401620009e2565b6003820154600483015560088201805461ff001916610100179055426007830155600062000b25620015fd565b6001600160a01b03168260405160006040518083038185875af1925050503d806000811462000b71576040519150601f19603f3d011682016040523d82523d6000602084013e62000b76565b606091505b505090508062000b9a5760405162461bcd60e51b8152600401620009e290620038ba565b837fb073e6fbd06d7557d2c82f414fee57de28e7fb517ecc0afdd6b1fc57034a9cb88360405162000bcd91815260200190565b60405180910390a250505050565b62000be5620023ea565b62000bef62002420565b565b62000bfb62002483565b6000818152600660205260409020600881015460ff1662000c505760405162461bcd60e51b815260206004820152600e60248201526d139bdd08189bdb991959081e595d60921b6044820152606401620009e2565b60008281526008602090815260408083203384529091529020548062000cae5760405162461bcd60e51b81526020600482015260126024820152714e6f20746f6b656e7320746f20636c61696d60701b6044820152606401620009e2565b6000838152600860209081526040808320338085529252808320929092558354915163a9059cbb60e01b81526004810191909152602481018390526001600160a01b039091169063a9059cbb906044016020604051808303816000875af115801562000d1e573d6000803e3d6000fd5b505050506040513d601f19601f8201168201806040525081019062000d449190620038e3565b50505062000d60600160008051602062004a8883398151915255565b50565b600062000d6f620024d2565b805490915060ff600160401b820416159067ffffffffffffffff1660008115801562000d985750825b905060008267ffffffffffffffff16600114801562000db65750303b155b90508115801562000dc5575080155b1562000de45760405163f92ee8a960e01b815260040160405180910390fd5b845467ffffffffffffffff19166001178555831562000e0f57845460ff60401b1916600160401b1785555b62000e1a33620024fc565b62000e2462002511565b62000e2e6200251b565b62000e3862002511565b66038d7ea4c6800060005560646001556775f610f70ed2000060025562ed4e006003556706f05b59d3b20000600455600a80546001600160a01b03808a166001600160a01b031992831617909255600b805492891692909116919091179055831562000ede57845460ff60401b19168555604051600181527fc7f505b2f371ae2175ee4913f4499e1f2633a7b5936321eed1cdaeb6115181d29060200160405180910390a15b50505050505050565b62000ef16200252f565b62000efc82620025d8565b62000f088282620025e2565b5050565b6006602052600090815260409020805460018201546002830180546001600160a01b0393841694929093169262000f439062003907565b80601f016020809104026020016040519081016040528092919081815260200182805462000f719062003907565b801562000fc25780601f1062000f965761010080835404028352916020019162000fc2565b820191906000526020600020905b81548152906001019060200180831162000fa457829003601f168201915b5050506003840154600485015460058601546006870154600788015460089098015496979396929550909350919060ff808216916101009004168a565b62001009620023ea565b600455565b60006200101a620026ae565b5060008051602062004a4883398151915290565b600080612710600154846200104491906200393d565b62001050919062003957565b90506200106984620010638386620038a4565b620026f8565b9150505b92915050565b6200107d620023ea565b60008181526006602052604090206008810154610100900460ff16620010d35760405162461bcd60e51b815260206004820152600a602482015269139bdd0819985a5b195960b21b6044820152606401620009e2565b6003548160070154620010e791906200397a565b4211620011375760405162461bcd60e51b815260206004820181905260248201527f477261636520706572696f64206e6f74206f76657220283138302064617973296044820152606401620009e2565b6000816004015482600301546200114f9190620038a4565b905060008111620011995760405162461bcd60e51b81526020600482015260136024820152724e6f7468696e6720746f20776974686472617760681b6044820152606401620009e2565b60038201546004830155600062000b25620015fd565b620011b9620023ea565b6001600160a01b038116620012115760405162461bcd60e51b815260206004820152601860248201527f496e76616c696420706f736974696f6e206d616e6167657200000000000000006044820152606401620009e2565b600a80546001600160a01b0319166001600160a01b0392909216919091179055565b6200123d620023ea565b6001600160a01b038116620012845760405162461bcd60e51b815260206004820152600c60248201526b092dcecc2d8d2c840ae8aa8960a31b6044820152606401620009e2565b600b80546001600160a01b0319166001600160a01b0392909216919091179055565b620012b062002483565b60008181526006602052604090206008810154610100900460ff16620013065760405162461bcd60e51b815260206004820152600a602482015269139bdd0819985a5b195960b21b6044820152606401620009e2565b600082815260076020908152604080832033845290915290205480620013635760405162461bcd60e51b8152602060048201526011602482015270139bdd1a1a5b99c81d1bc81c99599d5b99607a1b6044820152606401620009e2565b600083815260076020908152604080832033808552908352818420849055868452600883528184209084529091528120819055600483018054839290620013ac9084906200397a565b9091555050604051600090339083908381818185875af1925050503d8060008114620013f5576040519150601f19603f3d011682016040523d82523d6000602084013e620013fa565b606091505b50509050806200141e5760405162461bcd60e51b8152600401620009e290620038ba565b604051828152339085907f21e12a7cad0da5928167e1084ea4d5fdf8d9af66657a2543a9ac76a0ca0814779060200160405180910390a350505062000d60600160008051602062004a8883398151915255565b6200147b620023ea565b62000bef600062002852565b600081815260066020526040902080546001600160a01b0316620014bf5760405162461bcd60e51b8152600401620009e29062003860565b600881015460ff16158015620014df57506008810154610100900460ff16155b6200151d5760405162461bcd60e51b815260206004820152600d60248201526c105b1c9958591e48195b991959609a1b6044820152606401620009e2565b80600601544211620015645760405162461bcd60e51b815260206004820152600f60248201526e139bdd08195e1c1a5c9959081e595d608a1b6044820152606401620009e2565b60088101805461ff001916610100179055426007820155600381015460405183917fb8ead7a4312aee6b04435df614582e3bfceaa60789e94048bd5ec0c5f0ddbecc91620015b491815260200190565b60405180910390a25050565b620015ca620023ea565b62000bef620028c3565b6000818152600660205260408120600501546200106d906714adf4b7320334b9601d1b620038a4565b7f9016d09d72d40fdae2fd8ceac6b6234c7706214fd39c1cd1e609a0528c199300546001600160a01b031690565b6000818152600660208190526040822090829062001656906714adf4b7320334b9601d1b906200393d565b6002546200166d90670de0b6b3a76400006200393d565b62001679919062003957565b905060006714adf4b7320334b9601d1b600254670de0b6b3a7640000620016a191906200393d565b620016ad919062003957565b905060006714adf4b7320334b9601d1b620016c98484620038a4565b620016dd90670de0b6b3a76400006200393d565b620016e9919062003957565b9050670de0b6b3a76400008460050154826200170691906200393d565b62001712919062003957565b6200171e90846200397a565b9695505050505050565b6200173262002483565b6200173c62002910565b600081815260066020526040902080546001600160a01b0316620017745760405162461bcd60e51b8152600401620009e29062003860565b600881015460ff161580156200179457506008810154610100900460ff16155b620017cf5760405162461bcd60e51b815260206004820152600a60248201526914d85b1948195b99195960b21b6044820152606401620009e2565b80600601544210620018165760405162461bcd60e51b815260206004820152600f60248201526e111958591b1a5b99481c185cdcd959608a1b6044820152606401620009e2565b60003411620018565760405162461bcd60e51b815260206004820152600b60248201526a139bc8115512081cd95b9d60aa1b6044820152606401620009e2565b6004546000838152600760209081526040808320338452909152902054620018809034906200397a565b1115620018d05760405162461bcd60e51b815260206004820152601a60248201527f45786365656473206d617820627579207065722077616c6c65740000000000006044820152606401620009e2565b600061271060015434620018e591906200393d565b620018f1919062003957565b90506000620019018234620038a4565b90506000620019118583620026f8565b90506714adf4b7320334b9601d1b8185600501546200193191906200397a565b1115620019775760405162461bcd60e51b8152602060048201526013602482015272457863656564732073616c6520737570706c7960681b6044820152606401620009e2565b818460030160008282546200198d91906200397a565b9250508190555080846005016000828254620019aa91906200397a565b9091555050600085815260076020908152604080832033845290915281208054849290620019da9084906200397a565b909155505060008581526008602090815260408083203384529091528120805483929062001a0a9084906200397a565b909155505060405160009073a2eb6be3bde7e99a8e68e6252e006ced620ff02f9085908381818185875af1925050503d806000811462001a67576040519150601f19603f3d011682016040523d82523d6000602084013e62001a6c565b606091505b505090508062001a905760405162461bcd60e51b8152600401620009e29062003990565b857f476a21a61ac4a7da250e040733aa10facd2eeee584b2c009d178c3de3d8a12dc8560405162001ae39190604080825260059082015264747261646560d81b6060820152602081019190915260800190565b60405180910390a2600385015460408051348152602081018590528082019290925251339188917f7280bdf45dbd84499327763e7e91b31324c8fc5e8d556813089f71c9a8d91f5c9181900360600190a360025485600301541062001b4d5762001b4d8662002943565b505050505062000d60600160008051602062004a8883398151915255565b62001b75620023ea565b478062001bb25760405162461bcd60e51b815260206004820152600a6024820152694e6f2062616c616e636560b01b6044820152606401620009e2565b600062001bbe620015fd565b6001600160a01b03168260405160006040518083038185875af1925050503d806000811462001c0a576040519150601f19603f3d011682016040523d82523d6000602084013e62001c0f565b606091505b505090508062000f085760405162461bcd60e51b8152600401620009e290620038ba565b62001c3d620023ea565b6000818152600960205260409020548062001c8c5760405162461bcd60e51b815260206004820152600e60248201526d2737902628103837b9b4ba34b7b760911b6044820152606401620009e2565b600082815260096020526040812055600a546001600160a01b03166323b872dd3062001cb7620015fd565b6040516001600160e01b031960e085901b1681526001600160a01b0392831660048201529116602482015260448101849052606401600060405180830381600087803b15801562001d0757600080fd5b505af115801562001d1c573d6000803e3d6000fd5b50505050817f3f2b317879a981150b82cf7713f4825469fad74821918e88f622876fb7c7e2bd82604051620015b491815260200190565b62001dc060405180610140016040528060006001600160a01b0316815260200160006001600160a01b031681526020016060815260200160008152602001600081526020016000815260200160008152602001600081526020016000151581526020016000151581525090565b60008281526006602090815260409182902082516101408101845281546001600160a01b03908116825260018301541692810192909252600281018054929391929184019162001e109062003907565b80601f016020809104026020016040519081016040528092919081815260200182805462001e3e9062003907565b801562001e8f5780601f1062001e635761010080835404028352916020019162001e8f565b820191906000526020600020905b81548152906001019060200180831162001e7157829003601f168201915b505050918352505060038201546020820152600482015460408201526005820154606082015260068201546080820152600782015460a082015260089091015460ff808216151560c084015261010090910416151560e09091015292915050565b600062001efc62002910565b60005434101562001f505760405162461bcd60e51b815260206004820152601760248201527f496e73756666696369656e74206c61756e6368206665650000000000000000006044820152606401620009e2565b600c821015801562001f63575060488211155b62001fb15760405162461bcd60e51b815260206004820152601d60248201527f496e76616c6964206475726174696f6e3a2031322d373220686f7572730000006044820152606401620009e2565b861580159062001fc2575060208711155b620020065760405162461bcd60e51b8152602060048201526013602482015272092dcecc2d8d2c840dcc2daca40d8cadccee8d606b1b6044820152606401620009e2565b8415801590620020175750600a8511155b6200205d5760405162461bcd60e51b8152602060048201526015602482015274092dcecc2d8d2c840e6f2dac4ded840d8cadccee8d605b1b6044820152606401620009e2565b60008888888888883060405162002074906200340b565b620020869796959493929190620039e6565b604051809103906000f080158015620020a3573d6000803e3d6000fd5b50600580549192506000620020b88362003a45565b9190505550604051806101400160405280826001600160a01b03168152602001336001600160a01b0316815260200186868080601f0160208091040260200160405190810160405280939291908181526020018383808284376000920182905250938552505050602082018190526040820181905260608201526080016200214385610e106200393d565b6200214f90426200397a565b8152600060208083018290526040808401839052606090930182905260055482526006815290829020835181546001600160a01b03199081166001600160a01b0392831617835592850151600183018054909416911617909155908201516002820190620021be908262003ab5565b50606082015160038201556080820151600482015560a0820151600582015560c0820151600682015560e0820151600782015561010080830151600890920180546101209094015161ffff1990941692151561ff00191692909217921515029190911790556000805460405173a2eb6be3bde7e99a8e68e6252e006ced620ff02f91908381818185875af1925050503d80600081146200227b576040519150601f19603f3d011682016040523d82523d6000602084013e62002280565b606091505b5050905080620022a45760405162461bcd60e51b8152600401620009e29062003990565b6005547f476a21a61ac4a7da250e040733aa10facd2eeee584b2c009d178c3de3d8a12dc600054604051620022fc91906040808252600690820152650d8c2eadcc6d60d31b6060820152602081019190915260800190565b60405180910390a260008054620023149034620038a4565b905080156200232b576200232b6005548262002da3565b336001600160a01b0316836001600160a01b03166005547f62e692d1b2f43d75ac4fa2ec6030583958e0a7876420bb18500a657983c0863f8a8a600660006005548152602001908152602001600020600601546040516200238f9392919062003b82565b60405180910390a450506005549998505050505050505050565b620023b3620023ea565b6001600160a01b038116620023df57604051631e4fbdf760e01b815260006004820152602401620009e2565b62000d608162002852565b33620023f5620015fd565b6001600160a01b03161462000bef5760405163118cdaa760e01b8152336004820152602401620009e2565b6200242a62003091565b60008051602062004a68833981519152805460ff191681557f5db9ee0a495bf2e6ff9c91a7834c1ba4fdd244a5e8aa4e537bd38aeae4b073aa335b6040516001600160a01b03909116815260200160405180910390a150565b60008051602062004a88833981519152805460011901620024b757604051633ee5aeb560e01b815260040160405180910390fd5b60029055565b600160008051602062004a8883398151915255565b6000807ff0c57e16840df040f15088dc2f81fe391c3923bec73e23a9662efc9c229c6a006200106d565b62002506620030c3565b62000d6081620030eb565b62000bef620030c3565b62002525620030c3565b62000bef620030f5565b306001600160a01b037f0000000000000000000000000000000000000000000000000000000000000000161480620025b957507f00000000000000000000000000000000000000000000000000000000000000006001600160a01b0316620025ad60008051602062004a48833981519152546001600160a01b031690565b6001600160a01b031614155b1562000bef5760405163703e46dd60e11b815260040160405180910390fd5b62000d60620023ea565b816001600160a01b03166352d1902d6040518163ffffffff1660e01b8152600401602060405180830381865afa9250505080156200263f575060408051601f3d908101601f191682019092526200263c9181019062003ba8565b60015b6200266957604051634c9c8ce360e01b81526001600160a01b0383166004820152602401620009e2565b60008051602062004a4883398151915281146200269d57604051632a87526960e21b815260048101829052602401620009e2565b620026a98383620030ff565b505050565b306001600160a01b037f0000000000000000000000000000000000000000000000000000000000000000161462000bef5760405163703e46dd60e11b815260040160405180910390fd5b6000828152600660208190526040822090829062002723906714adf4b7320334b9601d1b906200393d565b6002546200273a90670de0b6b3a76400006200393d565b62002746919062003957565b905060006714adf4b7320334b9601d1b600254670de0b6b3a76400006200276e91906200393d565b6200277a919062003957565b905060006714adf4b7320334b9601d1b620027968484620038a4565b620027aa90670de0b6b3a76400006200393d565b620027b6919062003957565b90506000670de0b6b3a7640000856005015483620027d591906200393d565b620027e1919062003957565b620027ed90856200397a565b90506000620027fe8260026200393d565b6200280a89856200393d565b62002816919062003957565b6200282290836200397a565b9050806200283989670de0b6b3a76400006200393d565b62002845919062003957565b9998505050505050505050565b7f9016d09d72d40fdae2fd8ceac6b6234c7706214fd39c1cd1e609a0528c19930080546001600160a01b031981166001600160a01b03848116918217845560405192169182907f8be0079c531659141344cd1fd0a4f28419497f9722a3daafe3b4186f6b6457e090600090a3505050565b620028cd62002910565b60008051602062004a68833981519152805460ff191660011781557f62e78cea01bee320cd4e420270b5ea74000d11b0c9f74754ebdbfc544b05a2583362002465565b60008051602062004a688339815191525460ff161562000bef5760405163d93c066560e01b815260040160405180910390fd5b60008181526006602052604080822060088101805460ff19166001179055600b5460038201548351630d0e30db60e41b8152935192946001600160a01b039092169363d0e30db0939192600480830193919282900301818588803b158015620029ab57600080fd5b505af1158015620029c0573d6000803e3d6000fd5b50508354600a5460405163095ea7b360e01b81526001600160a01b0391821660048201526aa56fa5b99019a5c800000060248201529116935063095ea7b3925060440190506020604051808303816000875af115801562002a25573d6000803e3d6000fd5b505050506040513d601f19601f8201168201806040525081019062002a4b9190620038e3565b50600b54600a54600383015460405163095ea7b360e01b81526001600160a01b039283166004820152602481019190915291169063095ea7b3906044016020604051808303816000875af115801562002aa8573d6000803e3d6000fd5b505050506040513d601f19601f8201168201806040525081019062002ace9190620038e3565b50600b54815460009182916001600160a01b0391821691161062002b0457600b5483546001600160a01b03918216911662002b17565b8254600b546001600160a01b0391821691165b600b54855492945090925060009182916001600160a01b0390811691161062002b515784600301546aa56fa5b99019a5c800000062002b63565b6aa56fa5b99019a5c800000085600301545b6003870154600b54885493955091935060009262002b9c926aa56fa5b99019a5c8000000916001600160a01b039182169116106200315c565b600a546040516309f56ab160e11b81526001600160a01b03888116600483015287811660248301526127106044830152808416606483015292935091169060009082906313ead562906084016020604051808303816000875af115801562002c08573d6000803e3d6000fd5b505050506040513d601f19601f8201168201806040525081019062002c2e919062003bc2565b60408051610160810182526001600160a01b03808b1682528916602082015261271091810191909152620d899f196060820152620d89a0608082015260a0810187905260c08101869052600060e08201819052610100820181905230610120830152919250610140810162002ca64261012c6200397a565b8152509050600080846001600160a01b03166388316456846040518263ffffffff1660e01b815260040162002cdc919062003be2565b6080604051808303816000875af115801562002cfc573d6000803e3d6000fd5b505050506040513d601f19601f8201168201806040525081019062002d22919062003cab565b505060008e81526009602090815260409182902084905560038f015482516001600160a01b038a1681526001600160801b038516928101929092528183015290519294509092508d917f3ae5efadaccde413bdfcb3a4626babecd844c502ee4c2c9b340f28cd9d5527329181900360600190a2505050505050505050505050565b60008281526006602090815260408083206004546007845282852033865290935292205462002dd49084906200397a565b111562002e245760405162461bcd60e51b815260206004820152601a60248201527f45786365656473206d617820627579207065722077616c6c65740000000000006044820152606401620009e2565b60006127106001548462002e3991906200393d565b62002e45919062003957565b9050600062002e558285620038a4565b9050600062002e658683620026f8565b90506714adf4b7320334b9601d1b81856005015462002e8591906200397a565b111562002ecb5760405162461bcd60e51b8152602060048201526013602482015272457863656564732073616c6520737570706c7960681b6044820152606401620009e2565b8184600301600082825462002ee191906200397a565b925050819055508084600501600082825462002efe91906200397a565b909155505060008681526007602090815260408083203384529091528120805484929062002f2e9084906200397a565b909155505060008681526008602090815260408083203384529091528120805483929062002f5e9084906200397a565b909155505060405160009073a2eb6be3bde7e99a8e68e6252e006ced620ff02f9085908381818185875af1925050503d806000811462002fbb576040519150601f19603f3d011682016040523d82523d6000602084013e62002fc0565b606091505b505090508062002fe45760405162461bcd60e51b8152600401620009e29062003990565b867f476a21a61ac4a7da250e040733aa10facd2eeee584b2c009d178c3de3d8a12dc85604051620030379190604080825260059082015264747261646560d81b6060820152602081019190915260800190565b60405180910390a2600385015460408051888152602081018590528082019290925251339189917f7280bdf45dbd84499327763e7e91b31324c8fc5e8d556813089f71c9a8d91f5c9181900360600190a350505050505050565b60008051602062004a688339815191525460ff1662000bef57604051638dfc202b60e01b815260040160405180910390fd5b620030cd620031f9565b62000bef57604051631afcd79f60e31b815260040160405180910390fd5b620023b3620030c3565b620024bd620030c3565b6200310a8262003215565b6040516001600160a01b038316907fbc7cd75a20ee27fd9adebab32041f755214dbc6bffa90cc0225b39da2e5c2d3b90600090a28051156200315257620026a982826200327d565b62000f08620032f9565b60008082156200318f57836200317b86670de0b6b3a76400006200393d565b62003187919062003957565b9050620031b3565b84620031a485670de0b6b3a76400006200393d565b620031b0919062003957565b90505b6000620031d3620031cd83670de0b6b3a76400006200393d565b62003319565b9050620031ed670de0b6b3a7640000606083901b62003957565b925050505b9392505050565b600062003205620024d2565b54600160401b900460ff16919050565b806001600160a01b03163b6000036200324d57604051634c9c8ce360e01b81526001600160a01b0382166004820152602401620009e2565b60008051602062004a4883398151915280546001600160a01b0319166001600160a01b0392909216919091179055565b6060600080846001600160a01b0316846040516200329c919062003cf7565b600060405180830381855af49150503d8060008114620032d9576040519150601f19603f3d011682016040523d82523d6000602084013e620032de565b606091505b5091509150620032f08583836200337e565b95945050505050565b341562000bef5760405163b398979f60e01b815260040160405180910390fd5b60008060026200332b8460016200397a565b62003337919062003957565b90508291505b81811015620033785790508060028162003358818662003957565b6200336491906200397a565b62003370919062003957565b90506200333d565b50919050565b60608262003397576200339182620033e2565b620031f2565b8151158015620033af57506001600160a01b0384163b155b15620033da57604051639996b31560e01b81526001600160a01b0385166004820152602401620009e2565b5080620031f2565b805115620033f257805160208201fd5b60405163d6bda27560e01b815260040160405180910390fd5b610d328062003d1683390190565b600080604083850312156200342d57600080fd5b50508035926020909101359150565b6000602082840312156200344f57600080fd5b5035919050565b6001600160a01b038116811462000d6057600080fd5b600080604083850312156200348057600080fd5b823591506020830135620034948162003456565b809150509250929050565b60008060408385031215620034b357600080fd5b8235620034c08162003456565b91506020830135620034948162003456565b634e487b7160e01b600052604160045260246000fd5b60008060408385031215620034fc57600080fd5b8235620035098162003456565b9150602083013567ffffffffffffffff808211156200352757600080fd5b818501915085601f8301126200353c57600080fd5b813581811115620035515762003551620034d2565b604051601f8201601f19908116603f011681019083821181831017156200357c576200357c620034d2565b816040528281528860208487010111156200359657600080fd5b8260208601602083013760006020848301015280955050505050509250929050565b60005b83811015620035d5578181015183820152602001620035bb565b50506000910152565b60008151808452620035f8816020860160208601620035b8565b601f01601f19169290920160200192915050565b6001600160a01b038b811682528a166020820152610140604082018190526000906200363b8382018c620035de565b606084019a909a525050608081019690965260a086019490945260c085019290925260e084015215156101008301521515610120909101529392505050565b6000602082840312156200368d57600080fd5b8135620031f28162003456565b602081526000620031f26020830184620035de565b60208152620036ca6020820183516001600160a01b03169052565b60006020830151620036e760408401826001600160a01b03169052565b50604083015161014080606085015262003706610160850183620035de565b915060608501516080850152608085015160a085015260a085015160c085015260c085015160e085015260e0850151610100818187015280870151915050610120620037558187018315159052565b90950151151593019290925250919050565b60008083601f8401126200377a57600080fd5b50813567ffffffffffffffff8111156200379357600080fd5b602083019150836020828501011115620037ac57600080fd5b9250929050565b60008060008060008060006080888a031215620037cf57600080fd5b873567ffffffffffffffff80821115620037e857600080fd5b620037f68b838c0162003767565b909950975060208a01359150808211156200381057600080fd5b6200381e8b838c0162003767565b909750955060408a01359150808211156200383857600080fd5b50620038478a828b0162003767565b989b979a50959894979596606090950135949350505050565b602080825260149082015273151bdad95b88191bd95cc81b9bdd08195e1a5cdd60621b604082015260600190565b634e487b7160e01b600052601160045260246000fd5b818103818111156200106d576200106d6200388e565b6020808252600f908201526e151c985b9cd9995c8819985a5b1959608a1b604082015260600190565b600060208284031215620038f657600080fd5b81518015158114620031f257600080fd5b600181811c908216806200391c57607f821691505b6020821081036200337857634e487b7160e01b600052602260045260246000fd5b80820281158282048414176200106d576200106d6200388e565b6000826200397557634e487b7160e01b600052601260045260246000fd5b500490565b808201808211156200106d576200106d6200388e565b602080825260139082015272119959481d1c985b9cd9995c8819985a5b1959606a1b604082015260600190565b81835281816020850137506000828201602090810191909152601f909101601f19169091010190565b608081526000620039fc60808301898b620039bd565b828103602084015262003a1181888a620039bd565b9050828103604084015262003a28818688620039bd565b91505060018060a01b038316606083015298975050505050505050565b60006001820162003a5a5762003a5a6200388e565b5060010190565b601f821115620026a9576000816000526020600020601f850160051c8101602086101562003a8c5750805b601f850160051c820191505b8181101562003aad5782815560010162003a98565b505050505050565b815167ffffffffffffffff81111562003ad25762003ad2620034d2565b62003aea8162003ae3845462003907565b8462003a61565b602080601f83116001811462003b22576000841562003b095750858301515b600019600386901b1c1916600185901b17855562003aad565b600085815260208120601f198616915b8281101562003b535788860151825594840194600190910190840162003b32565b508582101562003b725787850151600019600388901b60f8161c191681555b5050505050600190811b01905550565b60408152600062003b98604083018587620039bd565b9050826020830152949350505050565b60006020828403121562003bbb57600080fd5b5051919050565b60006020828403121562003bd557600080fd5b8151620031f28162003456565b81516001600160a01b031681526101608101602083015162003c0f60208401826001600160a01b03169052565b50604083015162003c27604084018262ffffff169052565b50606083015162003c3d606084018260020b9052565b50608083015162003c53608084018260020b9052565b5060a083015160a083015260c083015160c083015260e083015160e08301526101008084015181840152506101208084015162003c9a828501826001600160a01b03169052565b505061014092830151919092015290565b6000806000806080858703121562003cc257600080fd5b8451935060208501516001600160801b038116811462003ce157600080fd5b6040860151606090960151949790965092505050565b6000825162003d0b818460208701620035b8565b919091019291505056fe60a06040523480156200001157600080fd5b5060405162000d3238038062000d328339810160408190526200003491620002d1565b8383600362000044838262000415565b50600462000053828262000415565b5050506001600160a01b038116608052600562000071838262000415565b506200008a816b033b2e3c9fd0803ce800000062000094565b5050505062000509565b6001600160a01b038216620000c45760405163ec442f0560e01b8152600060048201526024015b60405180910390fd5b620000d260008383620000d6565b5050565b6001600160a01b03831662000105578060026000828254620000f99190620004e1565b90915550620001799050565b6001600160a01b038316600090815260208190526040902054818110156200015a5760405163391434e360e21b81526001600160a01b03851660048201526024810182905260448101839052606401620000bb565b6001600160a01b03841660009081526020819052604090209082900390555b6001600160a01b0382166200019757600280548290039055620001b6565b6001600160a01b03821660009081526020819052604090208054820190555b816001600160a01b0316836001600160a01b03167fddf252ad1be2c89b69c2b068fc378daa952ba7f163c4a11628f55a4df523b3ef83604051620001fc91815260200190565b60405180910390a3505050565b634e487b7160e01b600052604160045260246000fd5b600082601f8301126200023157600080fd5b81516001600160401b03808211156200024e576200024e62000209565b604051601f8301601f19908116603f0116810190828211818310171562000279576200027962000209565b81604052838152602092508660208588010111156200029757600080fd5b600091505b83821015620002bb57858201830151818301840152908201906200029c565b6000602085830101528094505050505092915050565b60008060008060808587031215620002e857600080fd5b84516001600160401b03808211156200030057600080fd5b6200030e888389016200021f565b955060208701519150808211156200032557600080fd5b62000333888389016200021f565b945060408701519150808211156200034a57600080fd5b5062000359878288016200021f565b606087015190935090506001600160a01b03811681146200037957600080fd5b939692955090935050565b600181811c908216806200039957607f821691505b602082108103620003ba57634e487b7160e01b600052602260045260246000fd5b50919050565b601f82111562000410576000816000526020600020601f850160051c81016020861015620003eb5750805b601f850160051c820191505b818110156200040c57828155600101620003f7565b5050505b505050565b81516001600160401b0381111562000431576200043162000209565b620004498162000442845462000384565b84620003c0565b602080601f831160018114620004815760008415620004685750858301515b600019600386901b1c1916600185901b1785556200040c565b600085815260208120601f198616915b82811015620004b25788860151825594840194600190910190840162000491565b5085821015620004d15787850151600019600388901b60f8161c191681555b5050505050600190811b01905550565b808201808211156200050357634e487b7160e01b600052601160045260246000fd5b92915050565b60805161080d620005256000396000610174015261080d6000f3fe608060405234801561001057600080fd5b50600436106100a95760003560e01c8063313ce56711610071578063313ce5671461011c57806370a082311461012b57806395d89b4114610154578063a9059cbb1461015c578063c45a01551461016f578063dd62ed3e146101ae57600080fd5b806303ee438c146100ae57806306fdde03146100cc578063095ea7b3146100d457806318160ddd146100f757806323b872dd14610109575b600080fd5b6100b66101e7565b6040516100c39190610656565b60405180910390f35b6100b6610275565b6100e76100e23660046106c1565b610307565b60405190151581526020016100c3565b6002545b6040519081526020016100c3565b6100e76101173660046106eb565b610321565b604051601281526020016100c3565b6100fb610139366004610727565b6001600160a01b031660009081526020819052604090205490565b6100b6610345565b6100e761016a3660046106c1565b610354565b6101967f000000000000000000000000000000000000000000000000000000000000000081565b6040516001600160a01b0390911681526020016100c3565b6100fb6101bc366004610749565b6001600160a01b03918216600090815260016020908152604080832093909416825291909152205490565b600580546101f49061077c565b80601f01602080910402602001604051908101604052809291908181526020018280546102209061077c565b801561026d5780601f106102425761010080835404028352916020019161026d565b820191906000526020600020905b81548152906001019060200180831161025057829003601f168201915b505050505081565b6060600380546102849061077c565b80601f01602080910402602001604051908101604052809291908181526020018280546102b09061077c565b80156102fd5780601f106102d2576101008083540402835291602001916102fd565b820191906000526020600020905b8154815290600101906020018083116102e057829003601f168201915b5050505050905090565b600033610315818585610362565b60019150505b92915050565b60003361032f858285610374565b61033a8585856103f8565b506001949350505050565b6060600480546102849061077c565b6000336103158185856103f8565b61036f8383836001610457565b505050565b6001600160a01b038381166000908152600160209081526040808320938616835292905220546000198110156103f257818110156103e357604051637dc7a0d960e11b81526001600160a01b038416600482015260248101829052604481018390526064015b60405180910390fd5b6103f284848484036000610457565b50505050565b6001600160a01b03831661042257604051634b637e8f60e11b8152600060048201526024016103da565b6001600160a01b03821661044c5760405163ec442f0560e01b8152600060048201526024016103da565b61036f83838361052c565b6001600160a01b0384166104815760405163e602df0560e01b8152600060048201526024016103da565b6001600160a01b0383166104ab57604051634a1406b160e11b8152600060048201526024016103da565b6001600160a01b03808516600090815260016020908152604080832093871683529290522082905580156103f257826001600160a01b0316846001600160a01b03167f8c5be1e5ebec7d5bd14f71427d1e84f3dd0314c0f7b2291e5b200ac8c7c3b9258460405161051e91815260200190565b60405180910390a350505050565b6001600160a01b03831661055757806002600082825461054c91906107b6565b909155506105c99050565b6001600160a01b038316600090815260208190526040902054818110156105aa5760405163391434e360e21b81526001600160a01b038516600482015260248101829052604481018390526064016103da565b6001600160a01b03841660009081526020819052604090209082900390555b6001600160a01b0382166105e557600280548290039055610604565b6001600160a01b03821660009081526020819052604090208054820190555b816001600160a01b0316836001600160a01b03167fddf252ad1be2c89b69c2b068fc378daa952ba7f163c4a11628f55a4df523b3ef8360405161064991815260200190565b60405180910390a3505050565b60006020808352835180602085015260005b8181101561068457858101830151858201604001528201610668565b506000604082860101526040601f19601f8301168501019250505092915050565b80356001600160a01b03811681146106bc57600080fd5b919050565b600080604083850312156106d457600080fd5b6106dd836106a5565b946020939093013593505050565b60008060006060848603121561070057600080fd5b610709846106a5565b9250610717602085016106a5565b9150604084013590509250925092565b60006020828403121561073957600080fd5b610742826106a5565b9392505050565b6000806040838503121561075c57600080fd5b610765836106a5565b9150610773602084016106a5565b90509250929050565b600181811c9082168061079057607f821691505b6020821081036107b057634e487b7160e01b600052602260045260246000fd5b50919050565b8082018082111561031b57634e487b7160e01b600052601160045260246000fdfea26469706673582212200bdb6d3a1e3a8b4afc99737ea828857913dbdce0347a91b5515b2c8a73a755a364736f6c63430008180033360894a13ba1a3210667c828492db98dca3e2076cc3735a920a3ca505d382bbccd5ed15c6e187e77e9aee88184c21f4f2182ab5827cb3b7e07fbedcd63f033009b779b17422d0df92223018b32b4d1fa46e071723d6817e2486d003becc55f00a264697066735822122043e3e461e039c62c9e5181d050a54deca5d72fa6afa0b7a4c4740d0a22a4e39864736f6c63430008180033",
  "linkReferences": {},
  "deployedLinkReferences": {},
  "immutableReferences": {
    "482": [
      {
        "length": 32,
        "start": 9530
      },
      {
        "length": 32,
        "start": 9572
      },
      {
        "length": 32,
        "start": 9913
      }
    ]
  },
  "inputSourceName": "project/contracts/SafeLaunchFactory.sol",
  "buildInfoId": "solc-0_8_24-3dc328a8c6e6eafb55ccec1454366af6d5cb2bc8"
}